S0250000456C656B74726F6E696B70726F6A656B745F496E746567726174696F6E2E7372656305
S11300000C9475000C9491020C9492000C94920040
S11300100C9492000C9492000C9492000C943C0367
S11300200C9492000C9492000C9492000C94920004
S11300300C9492000C9402030C9492000C94920081
S11300400C94BC020C9492000C9492000C949200B8
S11300500C9492000C9492000C9492000C949200D4
S11300600C9492000C94920007634236B79BD8A775
S11300701A39685618AEBAAB558C1D3CB7CC5763C9
S1130080BD6DEDFD753EF6177231BF000000803F77
S113009008000000BE922449123EABAAAA2ABECD93
S11300A0CCCC4C3E00000080BEABAAAAAA3E000005
S11300B00000BF000000803F0000000000084178FD
S11300C0D3BB4387D1133D190E3CC3BD4282AD2B34
S11300D03E68EC8276BED98FE1A93E4C80EFFFBE2C
S11300E001C4FF7F3F000000000011241FBECFEFBA
S11300F0D8E0DEBFCDBF11E0A0E0B1E0EEEDF3E16A
S113010002C005900D92A230B107D9F721E0A2E018
S1130110B1E001C01D92A434B207E1F70E94880344
S11301200C94ED090C94000080937C0087EC809380
S11301307A0080917A0084FFFCCF80E180937A007A
S1130140809178009091790008950F931F93CF9335
S1130150DF93D82FC0E000E010E006C08D2F0E948E
S11301609400080F191FCF5FC830C0F3C8019695DB
S113017087959695879596958795DF91CF911F9151
S11301800F9108950E94A500BC0180E090E00E94B8
S1130190440727E137EB41E55BE30E94FB07089541
S11301A0CF93C82F80910201813099F030F08230D2
S11301B029F1833009F443C056C0C13009F053C05B
S11301C081E00E94C70580E00E94DF03C093020122
S11301D04AC0C23041F480E00E94C7050E94EB038C
S11301E0C093020140C0C1113EC084E00E94C70513
S11301F00E94EB03F894C093020135C0C13049F466
S113020081E00E94C70580E00E94DF03C0930201E1
S11302102AC0C33049F483E00E94C70581E00E94EC
S1130220DF03C09302011FC0C1111DC084E00E94FE
S1130230C7050E94EB03F894C093020114C0C230B6
S113024041F480E00E94C7050E94EB03C0930201C1
S11302500AC0C11108C084E00E94C7050E94EB03D4
S1130260F894C0930201CF910895809102018230E5
S1130270F9F08330A9F1813009F04BC00E944502A6
S1130280882321F082E00E94D000089560911C012F
S113029070911D0180911E0190911F010E9415070C
S11302A0862F0E9462050E941A040E94D9030895B1
S11302B00E942004811108C00E940D02882321F0AD
S11302C081E00E94D00008950E942004811121C081
S11302D00E940D0281111DC083E00E94D000089588
S11302E00E940D02882321F082E00E94D00008952C
S11302F082E30E94D90360911C0170911D018091D9
S11303001E0190911F010E94150784EB861B0E9419
S1130310620508958091020108950E9431060895AE
S11303200E948D0120E030E04CE852E40E94320645
S113033020E030E04CE053E40E94A30620E030E0EB
S113034044E353E40E94FB0708950F931F93CF9354
S1130350DF93062F172FD82FC92F20E030E04CE869
S113036052E40E94F60718168CF020E030E040EFCB
S113037050E4602F712F8D2F9C2F0E949E0688239E
S11303804CF400E010E0D0EFC0E404C000E010E062
S1130390DCE8C2E4602F712F8D2F9C2FDF91CF9169
S11303A01F910F9108950E94C2002DED34E246E999
S11303B05FEB0E9468082DE637EE4FEE51E40E9491
S11303C0FB070E94A5010895CF93DF9382E00E946A
S11303D0D301C3E0D1E0688779878A879B8781E06E
S11303E00E94D3016C837D838E839F8380E00E946F
S11303F0D301688379838A839B83DF91CF910895A6
S1130400E82FF0E0EE0FFF1FEE0FFF1FED5FFE4F32
S11304106081718182819381089560910B01709153
S11304200C0180910D0190910E0120E030E048EC28
S113043051E40E94F607181614F5609107017091B3
S113044008018091090190910A0120E030E04CE01C
S113045052E40E94F6071816A4F460910301709107
S11304600401809105019091060120E030E048EC00
S113047051E40E94F607181634F080E0089580E0F5
S1130480089580E0089581E00895CF92DF92EF927D
S1130490FF92C0900701D0900801E0900901F0900C
S11304A00A0120E030E040E251E4C701B6010E94B5
S11304B09E06181684F060910B0170910C018091D6
S11304C00D0190910E0120E030E040E251E40E94E1
S11304D09E061816E4F420E030E040E251E4C7013F
S11304E0B6010E949E061816A4F060910301709153
S11304F00401809105019091060120E030E040E282
S113050051E40E949E06181634F480E005C081E090
S113051003C080E001C081E0FF90EF90DF90CF90B6
S113052008951F920F920FB60F9211242F933F93A9
S11305304F935F936F937F938F939F93AF93BF93E7
S1130540EF93FF934A9B04C081E00E94D00003C054
S113055080E00E94D000FF91EF91BF91AF919F91F5
S11305608F917F916F915F914F913F912F910F9058
S11305700FBE0F901F9018951F920F920FB60F92F7
S113058011242F933F934F935F936F937F938F9394
S11305909F93AF93BF93CF93EF93FF9380911101F8
S11305A08F5F809311018431D8F00E94DC03C82F3F
S11305B00E941D048C1730F40E941D048F5F0E945A
S11305C0C0030CC00E94DC03C82F0E941D04C8177E
S11305D028F40E941D0481500E94C003109211014E
S11305E0FF91EF91CF91BF91AF919F918F917F91A7
S11305F06F915F914F913F912F910F900FBE0F908C
S11306001F9018951F920F920FB60F9211242F93DB
S11306103F934F935F936F937F938F939F93AF9386
S1130620BF93EF93FF930E942004882321F00E943C
S11306308A01882381F00E942004882361F080913C
S113064010018F5F80931001823328F080E00E94B4
S1130650230410921001FF91EF91BF91AF919F91EC
S11306608F917F916F915F914F913F912F910F9057
S11306700FBE0F901F9018951F920F920FB60F92F6
S11306801124CF92DF92EF92FF922F933F934F93D7
S11306905F936F937F938F939F93AF93BF93EF93E6
S11306A0FF9380910F018F5F80930F018A30D8F000
S11306B00E94E40180E00E9400026B017C0182E060
S11306C00E940002A70196010E949001AB01BC01A7
S11306D088E191E00E94B10481E00E9400020E943E
S11306E0000410920F01FF91EF91BF91AF919F9180
S11306F08F917F916F915F914F913F912F91FF90D7
S1130700EF90DF90CF900F900FBE0F901F90189531
S11307108CE38F9383E28F9387ED8F938AE08F939B
S11307208AE38F9383E88F9382E18F938FE68F938D
S11307300F2E812C912CF0E8AF2EFFE3BF2EF02D6D
S11307400F2EC12CD12CF4E3EF2EF3E4FF2EF02D69
S113075000E010E0980140E050E064EB72E488E1CE
S113076091E00E9426040E9484058DB79EB70896E6
S11307700FB6F8949EBF0FBE8DBF0E943501FDCF0A
S1130780CF9390911301911112C0C82F682F70E07C
S113079080E090E00E94460723E333E343E250E421
S11307A00E94FB070E94150767BDC0931401CF91F7
S11307B0089580931501089580911501089581117C
S11307C004C09BB19F7E9BB903C09BB190619BB950
S11307D080931601089580E00E94D90380E00E946E
S11307E0C00381E0809313010895843628F49FEFB9
S11307F0980F913318F0089583E6089582E30895DD
S113080020E030E040E251E40E94310620E030E094
S113081040E752E40E94A30620E030E046EC52E4B4
S11308200E94FB070E941507862F0E94F503809300
S11308301201089580911201089580911401089580
S11308408091130108958093130108958F929F92CC
S1130850AF92BF92CF92DF92EF92FF920F931F93CA
S1130860CF93DF93CDB7DEB7FC014083518362831E
S113087073830487158726873787C08AD18AE28ADB
S1130880F38A80A291A2A2A2B3A28F859889A98992
S1130890BA8984A395A3A6A3B7A38B899C89AD89A0
S11308A0BE8980A791A7A2A7B3A714821582168236
S11308B017821086118612861386148A158A168A60
S11308C0178A108E118E128E138E148E158E168E1C
S11308D0178EDF91CF911F910F91FF90EF90DF90D2
S11308E0CF90BF90AF909F908F9008958F929F92DA
S11308F0AF92BF92CF92DF92EF92FF92CF93DF93AA
S1130900EC01CC80DD80EE80FF8088889988AA88FD
S1130910BB88A5019401C701B6010E94F607181609
S11309202CF48C829D82AE82BF8210C08C849D8404
S1130930AE84BF84A5019401C701B6010E949E063E
S1130940882324F48C829D82AE82BF82DF91CF9172
S1130950FF90EF90DF90CF90BF90AF909F908F90DB
S113096008954F925F926F927F928F929F92AF926F
S1130970BF92CF92DF92EF92FF92CF93DF9300D09A
S113098000D000D0CDB7DEB79E838D834A015B01D2
S1130990DC018D919D910D90BC91A02D89839A834A
S11309A0AB83BC839A01AB01BC01CD010E9431062B
S11309B06B017C01ED81FE8180869186A286B386DF
S11309C024893589468957890E9431064B015C0187
S11309D0AD81BE815C966D937D938D939C935F975F
S11309E058962D913D914D915C915B97C701B6014D
S11309F00E9432062B013C01ED81FE81608F718FD4
S1130A00828F938F20A131A142A153A1C701B601C6
S1130A100E94FB079B01AC0169817A818B819C81D7
S1130A200E94320669837A838B839C83AD81BE8165
S1130A3094962D913D914D915C919797C301B2018C
S1130A400E94FB079B01AC0169817A818B819C81A7
S1130A500E9432062B013C01ED81FE8120A531A5C7
S1130A6042A553A5C501B4010E94FB079B01AC013B
S1130A70C301B2010E943206AD81BE8114966D930A
S1130A807D938D939C931797CD010E947604ED81FD
S1130A90FE81C48AD58AE68AF78A26960FB6F89428
S1130AA0DEBF0FBECDBFDF91CF91FF90EF90DF90FF
S1130AB0CF90BF90AF909F908F907F906F905F90FA
S1130AC04F900895CF93C82F64EB70E0681B7109B1
S1130AD0072E000C880B990B0E94460721EC3AEC78
S1130AE041EB5FE30E94FB0720E030E04AE753E478
S1130AF00E9432060E941507709389006093880053
S1130B00C0930001CF910895CF938EE184B980E51D
S1130B108AB984E085B981E00E94940082E88093D8
S1130B2080008BE18093810088E893E190938700B3
S1130B308093860087E791E09093890080938800F2
S1130B4081EA84BDC2E0C5BD17BC18BCC093B00027
S1130B5085E08093B1008DE78093B30060E875E28F
S1130B6080E090E00E94EB0581E0809369008DBBFA
S1130B7080936E0080936F00C0937000789484E03B
S1130B800E94C70580E00E94DF03CF91089595B1CC
S1130B90937E95B9823099F028F4882341F081300E
S1130BA051F00895833079F0843089F0089585B147
S1130BB0846085B9089585B1886085B9089585B143
S1130BC0806185B9089585B18C6085B9089585B132
S1130BD0846185B9089520911701211141C028E04D
S1130BE02093C10026E02093C200611571058105A0
S1130BF0910531F0603825E272078105910539F4D9
S1130C0087E690E09093C5008093C40023C00E94BF
S1130C10440720E030E040E851E40E94FB079B01D8
S1130C20AC0160E074E284E79BE40E94A30620E048
S1130C3030E040E85FE30E94310620E030E040E02D
S1130C405FE30E9432060E94150770E07093C500AE
S1130C506093C4008DE08093C60081E08093170107
S1130C6008955058BB27AA270E9449060C94BC0734
S1130C700E94AE0738F00E94B50720F039F49F3F78
S1130C8019F426F40C94AB070EF4E095E7FB0C94EE
S1130C90A507E92F0E94CD0758F3BA176207730717
S1130CA08407950720F079F4A6F50C94EF070EF469
S1130CB0E0950B2EBA2FA02D0B01B90190010C0168
S1130CC0CA01A0011124FF27591B99F0593F50F480
S1130CD0503E68F11A16F040A22F232F342F4427D8
S1130CE0585FF3CF469537952795A795F0405395D0
S1130CF0C9F77EF41F16BA0B620B730B840BBAF0A0
S1130D009150A1F0FF0FBB1F661F771F881FC2F70A
S1130D100EC0BA0F621F731F841F48F4879577951E
S1130D206795B795F7959E3F08F0B0CF9395880FD8
S1130D3008F09927EE0F9795879508950E948107EB
S1130D4008F481E008950E94B7060C94BC070E9441
S1130D50B50758F00E94AE0740F029F45F3F29F030
S1130D600C94A50751110C94F0070C94AB070E9446
S1130D70CD0768F39923B1F3552391F3951B550BD4
S1130D80BB27AA2762177307840738F09F5F5F4F5A
S1130D90220F331F441FAA1FA9F335D00E2E3AF099
S1130DA0E0E832D091505040E695001CCAF72BD0B1
S1130DB0FE2F29D0660F771F881FBB1F2617370702
S1130DC04807AB07B0E809F0BB0B802DBF01FF2734
S1130DD093585F4F3AF09E3F510578F00C94A50765
S1130DE00C94F0075F3FE4F3983ED4F3869577952F
S1130DF06795B795F7959F5FC9F7880F911D9695ED
S1130E00879597F90895E1E0660F771F881FBB1F48
S1130E10621773078407BA0720F0621B730B840BF5
S1130E20BA0BEE1F88F7E09508950E94D50788F065
S1130E309F5798F0B92F9927B751B0F0E1F0660F9A
S1130E40771F881F991F1AF0BA95C9F714C0B130DB
S1130E5091F00E94EF07B1E008950C94EF07672F1B
S1130E60782F8827B85F39F0B93FCCF3869577950A
S1130E706795B395D9F73EF49095809570956195F3
S1130E807F4F8F4F9F4F0895E89409C097FB3EF41E
S1130E9090958095709561957F4F8F4F9F4F9923C3
S1130EA0A9F0F92F96E9BB279395F6958795779541
S1130EB06795B795F111F8CFFAF4BB0F11F460FF01
S1130EC01BC06F5F7F4F8F4F9F4F16C0882311F059
S1130ED096E911C0772321F09EE8872F762F05C06D
S1130EE0662371F096E8862F70E060E02AF09A9508
S1130EF0660F771F881FDAF7880F9695879597F9FD
S1130F000895990F0008550FAA0BE0E8FEEF161696
S1130F101706E807F907C0F012161306E407F507E9
S1130F2098F0621B730B840B950B39F40A2661F05D
S1130F30232B242B252B21F408950A2609F4A14000
S1130F40A6958FEF811D811D089597F99F6780E80D
S1130F5070E060E008959FEF80EC089500240A9407
S1130F601616170618060906089500240A94121680
S1130F701306140605060895092E0394000C11F4B3
S1130F80882352F0BB0F40F4BF2B11F460FF04C060
S1130F906F5F7F4F8F4F9F4F089557FD9058440FB9
S1130FA0551F59F05F3F71F04795880F97FB991FC4
S1130FB061F09F3F79F08795089512161306140681
S1130FC0551FF2CF4695F1DF08C01616170618060E
S1130FD0991FF1CF86957105610508940895E894E9
S1130FE0BB2766277727CB0197F908950E948107CD
S1130FF008F48FEF08950E940E080C94BC070E9419
S1131000AE0738F00E94B50720F0952311F00C9438
S1131010A5070C94AB0711240C94F0070E94CD078C
S113102070F3959FC1F3950F50E0551F629FF00137
S1131030729FBB27F00DB11D639FAA27F00DB11D50
S1131040AA1F649F6627B00DA11D661F829F2227D9
S1131050B00DA11D621F739FB00DA11D621F839F60
S1131060A00D611D221F749F3327A00D611D231F36
S1131070849F600D211D822F762F6A2F11249F5784
S113108050409AF0F1F088234AF0EE0FFF1FBB1F87
S1131090661F771F881F91505040A9F79E3F510546
S11310A080F00C94A5070C94F0075F3FE4F3983E9E
S11310B0D4F3869577956795B795F795E7959F5FF0
S11310C0C1F7FE2B880F911D9695879597F9089582
S11310D0FA01EE0FFF1F309621053105A1F16115CC
S11310E0710561F48038BFE39B0749F16894903837
S11310F0810561F08038BFEF9B0741F099234AF5E1
S1131100FF3FE1053105210519F1E8940894E795BD
S1131110D901AA2329F4AB2FBE2FF85FD0F310C056
S1131120FF5F70F4A695E0F7F73950F019F0FF3A35
S113113038F49F779F930DD00F9007FC9058089533
S113114046F00C94AB0760E070E080E89FE30895FC
S11311504FE79F775F934F933F932F930E946309C9
S11311602F913F914F915F910E94FB070C94C0080F
S113117029F416F00C94A5070C94EF070C94AB0714
S11311800E94D507A8F39638A0F707F80F92E894C1
S11311902BE33AEA48EB5FE70E9411080F920F92A3
S11311A00F924DB75EB70F920E94AB09E8E6F0E0EC
S11311B00E94F2084F915F91EF91FF91E595EE1F28
S11311C0FF1F49F0FE57E0684427EE0F441FFA95CD
S11311D0E1F74195550B0E9425090F9007FE0C94E9
S11311E019090895DF93CF931F930F93FF92EF9202
S11311F0DF927B018C01689406C0DA2EEF010E9415
S11312000E08FE01E894A5912591359145915591DB
S1131210A6F3EF010E944906FE019701A801DA94A2
S113122069F7DF90EF90FF900F911F91CF91DF91BD
S113123008959B01AC0160E070E080E89FE30C94AA
S1131240A3060C94A5070C94DF090E94D507D8F3D4
S11312509923C9F3940F511DA3F39150504094F076
S113126059F0882332F0660F771F881F9150504041
S1131270C1F79E3F51052CF7880F911D96958795D0
S113128097F908955F3FACF0983E9CF0BB27869594
S113129077956795B79508F4B1609395C1F7BB0F3F
S11312A058F711F460FFE8CF6F5F7F4F8F4F9F4F68
S11312B0E3CF0C94F00716F00C94DF090C94AB0701
S11312C068940C94A5070E94D507A8F39923C1F349
S11312D0AEF3DF93CF931F930F93FF92C92FDD27B4
S11312E088232AF02197660F771F881FDAF720E0FA
S11312F030E040E85FEB9FE3883920F0803E38F02F
S113130021968F770E943206E0E9F0E004C00E9443
S11313103206EDEBF0E00E94F2088B01BE01EC0115
S1131320FB2E6F5771097595771F880B990B0E94D7
S1131330460728E132E741E35FE30E940E08AF2D40
S11313409801AE01FF900F911F91CF91DF910E9400
S113135049060C94BC07FA01DC01AA0FBB1F9B01D0
S1131360AC01BF5728F4222733274427507820C0E4
S1131370B75190F4AB2F0024469537952795011C5F
S1131380A395D2F3002071F0220F331F441FB395AD
S1131390DAF30ED00C94310661307105A0E88A07A7
S11313A0B94630F49B01AC016627772788279078EB
S11313B0309621F0208331834283538308959F3FE5
S11313C031F0915020F4879577956795B795880FFC
S11113D0911D9695879597F90895F894FFCF8F
S10513DE5A00AF
S9030000FC
