S01500004932435F4D6963726F636869702E7372656354
S11300000C9434000C9451000C9451000C94510045
S11300100C9451000C9451000C9451000C94510018
S11300200C9451000C9451000C9451000C94510008
S11300300C9451000C9451000C9451000C945100F8
S11300400C9451000C9451000C9451000C945100E8
S11300500C9451000C9451000C9451000C945100D8
S11300600C9451000C94510011241FBECFEFD8E022
S1130070DEBFCDBF11E0A0E0B1E0E0EEF8E002C0E9
S113008005900D92A636B107D9F721E0A6E6B1E0B6
S113009001C01D92A637B207E1F70E949F000C949D
S11300A06E040C9400008093BA0084EC8093BC002E
S11300B008958091BC008823E4F78091B900887F7B
S11300C0803671F0883671F0883A71F0803B71F0B7
S11300D0803771F0883771F0803859F781E00895DE
S11300E080E0089580E0089581E0089581E0089516
S11300F082E0089582E0089584EC8093BC008091AE
S1130100BC008823E4F78091B900887F803811F01F
S1130110803919F48091BB000895883811F088392A
S113012019F48091BB000895803A39F4ECEBF0E0C7
S113013080818068808389E008958EEF08950E940D
S11301401B0188E00E94530080E091E00E94390185
S11301500E947F010E945900882321F0813009F414
S113016060C064C00E947C0080936F018093700122
S11301700E947C008093750190E0982F88279093CB
S113018072018093710120917001820F911D9093EF
S11301907401809373012091660130916701F90124
S11301A0EE0FFF1FE859FE4F91838083C90101962A
S11301B09093670180936601039784F1109267011D
S11301C0109266018DE091E00E943901C8E6D1E009
S11301D068817981072E000C880B990B0E944C01D1
S11301E084E191E00E9439016A817B81072E000C31
S11301F0880B990B0E944C0180E291E00E94390126
S11302006C817D81072E000C880B990B0E944C0198
S11302100E947F010E947F010E947F010E947C0056
S113022099CF8BE291E00E94390194CF80E491E070
S11302300E9439018FCF80916E01811112C088E034
S11302408093C10086E08093C20087E690E090939B
S1130250C5008093C4008DE08093C60081E0809344
S11302606E0108959091C00095FFFCCF8093C60065
S11302700895CF93DF93EC0109C00E943201888175
S11302808A3019F48DE00E9432012196888181110F
S1130290F4CFDF91CF9108950F931F93CF93DF9302
S11302A0CDB7DEB764970FB6F894DEBF0FBECDBFEF
S11302B08E010F5F1F4F24E1F80111922A95E9F78F
S11302C09F938F937F936F938EE591E09F938F938A
S11302D01F930F930E948401C8010E9439010FB635
S11302E0F894DEBF0FBECDBF64960FB6F894DEBFA0
S11302F00FBECDBFDF91CF911F910F91089582E67C
S113030091E00E9439010895AEE0B0E0EAE8F1E03E
S11303100C9445040D891E8986E08C831A83098315
S11303208FEF9FE79E838D83AE01475E5F4F6F899A
S1130330788DCE0101960E94A601EF81F885E00F29
S1130340F11F10822E96E4E00C946104ABE0B0E05F
S1130350ECEAF1E00C9437046C017B018A01FC01A6
S113036017821682838181FFCCC1CE0101963C01A4
S1130370F6019381F70193FD859193FF81917F01AC
S1130380882309F4BAC1853239F493FD859193FF2A
S113039081917F01853229F4B60190E00E949D038A
S11303A0E7CF912C212C312CFFE1F315D8F08B32BF
S11303B079F038F4803279F08332A1F4232D20616E
S11303C01DC08D3261F0803369F4232D216016C085
S11303D0832D8260382EE32DE4603E2E2AC0F32D57
S11303E0F8601DC037FC2DC020ED280F2A3040F0E6
S11303F08E32B9F436FC81C1232D2064322E19C00B
S113040036FE06C08AE0989E200D1124922E11C05B
S1130410EAE02E9E200D1124222EF32DF0623F2EB1
S113042008C08C3621F4832D8068382E02C08836AB
S113043041F4F70193FD859193FF81917F0181112F
S1130440B3CF982F9F7D9554933028F40C5F1F4FA2
S11304509FE399830DC0833631F0833771F0833580
S113046009F059C021C0F801808189830E5F1F4FB4
S113047088248394912C530113C02801F2E04F0E79
S1130480511CF801A080B18036FE03C0692D70E0D4
S113049002C06FEF7FEFC5010E9492034C018201FD
S11304A0F32DFF773F2E16C0280122E0420E511C87
S11304B0F801A080B18036FE03C0692D70E002C04F
S11304C06FEF7FEFC5010E9487034C01F32DF068A5
S11304D03F2E820133FC1BC0822D90E088169906C2
S11304E0B0F4B60180E290E00E949D032A94F4CF18
S11304F0F50137FC859137FE81915F01B60190E0EB
S11305000E949D0321102A9421E0821A91088114EB
S1130510910471F7E8C0843611F0893641F5F80189
S113052037FE07C060817181828193810C5F1F4F08
S113053008C060817181072E000C880B990B0E5F37
S11305401F4FF32DFF763F2E97FF09C0909580959E
S1130550709561957F4F8F4F9F4FF0683F2E2AE033
S113056030E0A3010E94D903882E861845C0853740
S113057031F4232D2F7EB22E2AE030E025C0932DB6
S1130580997FB92E8F36C1F018F4883579F0B5C04B
S1130590803719F0883721F0B0C0E92FE061BE2E12
S11305A0B4FE0DC0FB2DF460BF2E09C034FE0AC09A
S11305B0292F2660B22E06C028E030E005C020E1D5
S11305C030E002C020E132E0F801B7FE07C06081EC
S11305D07181828193810C5F1F4F06C0608171819C
S11305E080E090E00E5F1F4FA3010E94D903882E84
S11305F08618FB2DFF773F2E36FE0DC0232D2E7F50
S1130600A22E891458F434FE0BC032FC09C0832D89
S11306108E7EA82E05C0B82CA32C03C0B82C01C014
S1130620B92CA4FE0FC0FE01E80DF11D80818033BA
S113063021F49A2D997EA92E09C0A2FE06C0B39476
S1130640B39404C08A2D867809F0B394A3FC11C036
S1130650A0FE06C0B21488F4280C922C9B180EC07D
S1130660B21460F4B60180E290E00E949D03B3945A
S1130670F7CFB21418F42B1802C0982C212CA4FE26
S113068010C0B60180E390E00E949D03A2FE17C053
S1130690A1FC03C088E790E002C088E590E0B601C1
S11306A00CC08A2D867859F0A1FE02C08BE201C0ED
S11306B080E2A7FC8DE2B60190E00E949D038914BC
S11306C038F4B60180E390E00E949D039A94F7CF3A
S11306D08A94F301E80DF11D8081B60190E00E9437
S11306E09D038110F5CF222009F442CEB60180E2A9
S11306F090E00E949D032A94F6CFF60186819781AB
S113070002C08FEF9FEF2B96E2E10C945304FC019F
S11307100590615070400110D8F7809590958E0F28
S11307209F1F0895FC016150704001900110D8F79B
S1130730809590958E0F9F1F08950F931F93CF93CD
S1130740DF93FB01238121FD03C08FEF9FEF2CC0BA
S113075022FF16C0468157812481358142175307F1
S113076044F4A081B1819D012F5F3F4F31832083E9
S11307708C93268137812F5F3F4F3783268314C0A4
S11307808B01EC01FB010084F185E02D0995892B97
S1130790E1F6D80116968D919C91179701961796BC
S11307A09C938E931697CE01DF91CF911F910F9159
S11307B00895FA01AA27283051F1203181F1E894F3
S11307C06F936E7F6E5F7F4F8F4F9F4FAF4FB1E040
S11307D03ED0B4E03CD0670F781F891F9A1FA11D3B
S11307E0680F791F8A1F911DA11D6A0F711D811D3C
S11307F0911DA11D20D009F468943F912AE0269F01
S113080011243019305D3193DEF6CF010895462F5F
S11308104770405D4193B3E00FD0C9F7F6CF462F40
S11308204F70405D4A3318F0495D31FD40524193A9
S113083002D0A9F7EACFB4E0A69597958795779566
S11308406795BA95C9F700976105710508959B01ED
S1130850AC010A2E06945795479537952795BA9576
S1130860C9F7620F731F841F951FA01D08952F924F
S11308703F924F925F926F927F928F929F92AF922C
S1130880BF92CF92DF92EF92FF920F931F93CF9379
S1130890DF93CDB7DEB7CA1BDB0B0FB6F894DEBF10
S11308A00FBECDBF09942A88398848885F846E8436
S11308B07D848C849B84AA84B984C884DF80EE8080
S11308C0FD800C811B81AA81B981CE0FD11D0FB689
S11308D0F894DEBF0FBECDBFED010895F894FFCFAD
S11308E0536C61766520446576696365004C656682
S11308F0743A200020202043656E7465723A20000B
S113090020202052696768743A20000A4E6F7420D0
S1130910534C412B572028636173652031290A0009
S11309200A4E6F7420534C412B572028646566612E
S1130930756C74290A00256C7500256C642E256C71
S109094064000A0D000032
S9030000FC
