:100000000C9434000C943E000C943E000C943E0082
:100010000C943E000C943E000C943E000C943E0068
:100020000C943E000C943E000C943E000C943E0058
:100030000C943E000C943E000C943E000C943E0048
:100040000C943E000C943E000C943E000C943E0038
:100050000C943E000C943E000C943E000C943E0028
:100060000C943E000C943E0011241FBECFEFD8E04C
:10007000DEBFCDBF0E945B000C946A000C940000B0
:100080001092B90082E78093B80082E08093BA00B2
:10009000089584EC8093BC008091BC008823E4F731
:1000A000089584EC8093BC008091BC008823E4F721
:1000B0008091BB0008958FEF8AB988B1806388B9B9
:1000C0000E9440000E9449000E9451000E9451007D
:0800D0008BB9FFCFF894FFCFBC
:00000001FF
