:100000000C9475000C9492000C9492000C94920045
:100010000C9492000C9492000C9492000C94920018
:100020000C9492000C9492000C9492000C94920008
:100030000C9492000C9492000C9492000C949200F8
:100040000C9492000C9492000C9492000C949200E8
:100050000C9492000C9492000C9492000C949200D8
:100060000C9492000C94920007634236B79BD8A779
:100070001A39685618AEBAAB558C1D3CB7CC5763CD
:10008000BD6DEDFD753EF6177231BF000000803F7B
:1000900008000000BE922449123EABAAAA2ABECD97
:1000A000CCCC4C3E00000080BEABAAAAAA3E000009
:1000B0000000BF000000803F000000000008417801
:1000C000D3BB4387D1133D190E3CC3BD4282AD2B38
:1000D0003E68EC8276BED98FE1A93E4C80EFFFBE30
:1000E00001C4FF7F3F000000000011241FBECFEFBE
:1000F000D8E0DEBFCDBF11E0A0E0B1E0EAEFF1E172
:1001000002C005900D92A632B107D9F721E0A6E210
:10011000B1E001C01D92A333B207E1F70E94F900DC
:100120000C94FB080C94000080937C0087EC809377
:100130007A0080917A0084FFFCCF80E180937A007E
:10014000809178009091790008950F931F93CF9339
:10015000DF93D82FC0E000E010E006C08D2F0E9492
:100160009400080F191FCF5FC830C0F3C8019695DF
:1001700087959695879596958795DF91CF911F9155
:100180000F9108950E94A500BC0180E090E00E94BC
:10019000680327E137EB41E55BE30E94FB03089529
:1001A000CF92DF92EF92FF9229E23CE54FE85FEBBE
:1001B0000E9468042DE637EE4FEE51E40E94FB03E7
:1001C0006B017C0120E030E04CE552E40E94F60334
:1001D000882344F00F2EC12CD12CFCE5EF2EF2E445
:1001E000FF2EF02DC701B601FF90EF90DF90CF906A
:1001F00008950E94690182E00E94C2000E94D0001E
:1002000020E030E040E450E40E94530260932E016D
:1002100070932F01809330019093310181E00E940F
:10022000C2000E94D00020E030E040E050E40E9494
:10023000530260932A0170932B0180932C019093B9
:100240002D0180E00E94C2000E94D00020E030E03A
:1002500040E050E40E94530260932601709327010E
:10026000809328019093290180E091E00E94C001D1
:1002700060912E0170912F01809130019091310198
:100280000E94D30189E00E94B90187E091E00E94B9
:10029000C00160912A0170912B0180912C019091F5
:1002A0002D010E94D30189E00E94B90180E191E013
:1002B0000E94C00160912601709127018091280160
:1002C000909129010E94D30188E191E00E94C00130
:1002D00092CF81E00E94940060E875E280E090E0B7
:1002E0000E947301089520913201211141C028E03C
:1002F0002093C10026E02093C2006115710581059D
:10030000910531F0603825E272078105910539F4D5
:1003100087E690E09093C5008093C40023C00E94BC
:10032000680320E030E040E851E40E94FB039B01B9
:10033000AC0160E074E284E79BE40E94C00220E02C
:1003400030E040E85FE30E94530220E030E040E00C
:100350005FE30E9454020E94390370E07093C5006D
:100360006093C4008DE08093C60081E080933201E9
:1003700008959091C00095FFFCCF8093C60008952A
:10038000CF93DF93EC0109C00E94B90188818A30C4
:1003900019F48DE00E94B901219688818111F4CF72
:1003A000DF91CF9108958F929F92AF92BF92CF929B
:1003B000DF92EF92FF920F931F93CF93DF93CDB70E
:1003C000DEB764970FB6F894DEBF0FBECDBF4B010A
:1003D0005C010E9432036B017C01FE01319684E1D5
:1003E000DF011D928A95E9F7FF20CCF0C701B60125
:1003F0000E946A039B01AC01C501B4010E94530233
:1004000020E030E048EC52E40E94FB0320E030E0C2
:1004100040E05FE30E9454020E94320316C0C7010D
:10042000B6010E946A03A50194010E94530220E0D4
:1004300030E048EC52E40E94FB0320E030E040E072
:100440005FE30E9454020E9432039F938F937F9335
:100450006F93FF92EF92DF92CF928EE191E09F93A4
:100460008F938E010F5F1F4F1F930F930E941106F2
:10047000C8010E94C0010FB6F894DEBF0FBECDBF09
:1004800064960FB6F894DEBF0FBECDBFDF91CF915B
:100490001F910F91FF90EF90DF90CF90BF90AF90A2
:1004A0009F908F9008955058BB27AA270E946B02F7
:1004B0000C94BC030E94AE0338F00E94B50320F0F8
:1004C00039F49F3F19F426F40C94AB030EF4E09535
:1004D000E7FB0C94A503E92F0E94CD0358F3BA174C
:1004E000620773078407950720F079F4A6F50C944A
:1004F000EF030EF4E0950B2EBA2FA02D0B01B901DE
:1005000090010C01CA01A0011124FF27591B99F089
:10051000593F50F4503E68F11A16F040A22F232F95
:10052000342F4427585FF3CF469537952795A795E5
:10053000F0405395C9F77EF41F16BA0B620B730B8C
:10054000840BBAF09150A1F0FF0FBB1F661F771FFD
:10055000881FC2F70EC0BA0F621F731F841F48F4B2
:10056000879577956795B795F7959E3F08F0B0CF3B
:100570009395880F08F09927EE0F97958795089522
:100580000E94D4020C94BC030E94B50358F00E9450
:10059000AE0340F029F45F3F29F00C94A5035111FC
:1005A0000C94F0030C94AB030E94CD0368F39923E1
:1005B000B1F3552391F3951B550BBB27AA2762175F
:1005C0007307840738F09F5F5F4F220F331F441F6C
:1005D000AA1FA9F335D00E2E3AF0E0E832D09150A0
:1005E0005040E695001CCAF72BD0FE2F29D0660F8D
:1005F000771F881FBB1F261737074807AB07B0E8D0
:1006000009F0BB0B802DBF01FF2793585F4F3AF0D5
:100610009E3F510578F00C94A5030C94F0035F3FC6
:10062000E4F3983ED4F3869577956795B795F7955B
:100630009F5FC9F7880F911D9695879597F9089543
:10064000E1E0660F771F881FBB1F621773078407DF
:10065000BA0720F0621B730B840BBA0BEE1F88F7EE
:10066000E09508950E9439036894B1110C94F00349
:1006700008950E94D50388F09F5798F0B92F9927C5
:10068000B751B0F0E1F0660F771F881F991F1AF07D
:10069000BA95C9F714C0B13091F00E94EF03B1E0F0
:1006A00008950C94EF03672F782F8827B85F39F0EF
:1006B000B93FCCF3869577956795B395D9F73EF416
:1006C00090958095709561957F4F8F4F9F4F0895BE
:1006D000E89409C097FB3EF49095809570956195DC
:1006E0007F4F8F4F9F4F9923A9F0F92F96E9BB2792
:1006F0009395F695879577956795B795F111F8CF0E
:10070000FAF4BB0F11F460FF1BC06F5F7F4F8F4F78
:100710009F4F16C0882311F096E911C0772321F06E
:100720009EE8872F762F05C0662371F096E8862F06
:1007300070E060E02AF09A95660F771F881FDAF75D
:10074000880F9695879597F9089597F99F6780E8A0
:1007500070E060E008959FEF80EC089500240A9413
:100760001616170618060906089500240A9412168C
:100770001306140605060895092E0394000C11F4BF
:10078000882352F0BB0F40F4BF2B11F460FF04C06C
:100790006F5F7F4F8F4F9F4F089557FD9058440FC5
:1007A000551F59F05F3F71F04795880F97FB991FD0
:1007B00061F09F3F79F0879508951216130614068D
:1007C000551FF2CF4695F1DF08C01616170618061A
:1007D000991FF1CF86957105610508940895E894F5
:1007E000BB2766277727CB0197F908950E94F2046B
:1007F00008F48FEF08950E940E040C94BC030E942D
:10080000AE0338F00E94B50320F0952311F00C944C
:10081000A5030C94AB0311240C94F0030E94CD03A8
:1008200070F3959FC1F3950F50E0551F629FF00143
:10083000729FBB27F00DB11D639FAA27F00DB11D5C
:10084000AA1F649F6627B00DA11D661F829F2227E5
:10085000B00DA11D621F739FB00DA11D621F839F6C
:10086000A00D611D221F749F3327A00D611D231F42
:10087000849F600D211D822F762F6A2F11249F5790
:1008800050409AF0F1F088234AF0EE0FFF1FBB1F93
:10089000661F771F881F91505040A9F79E3F510552
:1008A00080F00C94A5030C94F0035F3FE4F3983EB2
:1008B000D4F3869577956795B795F795E7959F5FFC
:1008C000C1F7FE2B880F911D9695879597F908958E
:1008D000FA01EE0FFF1F309621053105A1F16115D8
:1008E000710561F48038BFE39B0749F16894903843
:1008F000810561F08038BFEF9B0741F099234AF5ED
:10090000FF3FE1053105210519F1E8940894E795C9
:10091000D901AA2329F4AB2FBE2FF85FD0F310C062
:10092000FF5F70F4A695E0F7F73950F019F0FF3A41
:1009300038F49F779F930DD00F9007FC905808953F
:1009400046F00C94AB0360E070E080E89FE308950C
:100950004FE79F775F934F933F932F930E948705B5
:100960002F913F914F915F910E94FB030C94C00423
:1009700029F416F00C94A5030C94EF030C94AB032C
:100980000E94D503A8F39638A0F707F80F92E894D1
:100990002BE33AEA48EB5FE70E9411040F920F92B3
:1009A0000F924DB75EB70F920E94CF05E8E6F0E0D8
:1009B0000E9416054F915F91EF91FF91E595EE1F13
:1009C000FF1F49F0FE57E0684427EE0F441FFA95D9
:1009D000E1F74195550B0E9449050F9007FE0C94D5
:1009E0003D050895990F0008550FAA0BE0E8FEEFAA
:1009F00016161706E807F907C0F012161306E407E3
:100A0000F50798F0621B730B840B950B39F40A26DB
:100A100061F0232B242B252B21F408950A2609F4B9
:100A2000A140A6958FEF811D811D0895DF93CF937F
:100A30001F930F93FF92EF92DF927B018C016894DA
:100A400006C0DA2EEF010E940E04FE01E894A59183
:100A50002591359145915591A6F3EF010E946B02C6
:100A6000FE019701A801DA9469F7DF90EF90FF90FB
:100A70000F911F91CF91DF9108959B01AC0160E030
:100A800070E080E89FE30C94C0020C94A5030C94E2
:100A900003060E94D503D8F39923C9F3940F511D7F
:100AA000A3F39150504094F059F0882332F0660F30
:100AB000771F881F91505040C1F79E3F51052CF77A
:100AC000880F911D9695879597F908955F3FACF033
:100AD000983E9CF0BB27869577956795B79508F467
:100AE000B1609395C1F7BB0F58F711F460FFE8CFE1
:100AF0006F5F7F4F8F4F9F4FE3CF0C94F00316F043
:100B00000C9403060C94AB0368940C94A5030E9408
:100B1000D503A8F39923C1F3AEF3DF93CF931F93CB
:100B20000F93FF92C92FDD2788232AF02197660FA4
:100B3000771F881FDAF720E030E040E85FEB9FE3A3
:100B4000883920F0803E38F021968F770E94540239
:100B5000E0E9F0E004C00E945402EDEBF0E00E94F6
:100B600016058B01BE01EC01FB2E6F5771097595BF
:100B7000771F880B990B0E946A0328E132E741E353
:100B80005FE30E940E04AF2D9801AE01FF900F911C
:100B90001F91CF91DF910E946B020C94BC03FA016C
:100BA000DC01AA0FBB1F9B01AC01BF5728F4222711
:100BB00033274427507820C0B75190F4AB2F00243E
:100BC000469537952795011CA395D2F3002071F027
:100BD000220F331F441FB395DAF30ED00C94530247
:100BE00061307105A0E88A07B94630F49B01AC0179
:100BF0006627772788279078309621F020833183E5
:100C00004283538308959F3F31F0915020F487959C
:100C100077956795B795880F911D9695879597F964
:100C20000895AEE0B0E0E7E1F6E00C94D2080D895B
:100C30001E8986E08C831A8309838FEF9FE79E834A
:100C40008D83AE01475E5F4F6F89788DCE0101962F
:100C50000E943306EF81F885E00FF11F10822E9677
:100C6000E4E00C94EE08ABE0B0E0E9E3F6E00C94CD
:100C7000C4086C017B018A01FC0117821682838102
:100C800081FFCCC1CE0101963C01F6019381F701B1
:100C900093FD859193FF81917F01882309F4BAC167
:100CA000853239F493FD859193FF81917F018532DF
:100CB00029F4B60190E00E942A08E7CF912C212C5C
:100CC000312CFFE1F315D8F08B3279F038F4803213
:100CD00079F08332A1F4232D20611DC08D3261F0A3
:100CE000803369F4232D216016C0832D8260382E55
:100CF000E32DE4603E2E2AC0F32DF8601DC037FCC2
:100D00002DC020ED280F2A3040F08E32B9F436FC89
:100D100081C1232D2064322E19C036FE06C08AE020
:100D2000989E200D1124922E11C0EAE02E9E200DD7
:100D30001124222EF32DF0623F2E08C08C3621F4B0
:100D4000832D8068382E02C0883641F4F70193FD68
:100D5000859193FF81917F018111B3CF982F9F7D62
:100D60009554933028F40C5F1F4F9FE399830DC077
:100D7000833631F0833771F0833509F059C021C0D3
:100D8000F801808189830E5F1F4F88248394912C02
:100D9000530113C02801F2E04F0E511CF801A0804E
:100DA000B18036FE03C0692D70E002C06FEF7FEFA7
:100DB000C5010E941F084C018201F32DFF773F2ED1
:100DC00016C0280122E0420E511CF801A080B1801B
:100DD00036FE03C0692D70E002C06FEF7FEFC501E2
:100DE0000E9414084C01F32DF0683F2E820133FC61
:100DF0001BC0822D90E088169906B0F4B60180E2FF
:100E000090E00E942A082A94F4CFF50137FC8591DE
:100E100037FE81915F01B60190E00E942A082110FF
:100E20002A9421E0821A91088114910471F7E8C094
:100E3000843611F0893641F5F80137FE07C060812C
:100E40007181828193810C5F1F4F08C06081718125
:100E5000072E000C880B990B0E5F1F4FF32DFF76AA
:100E60003F2E97FF09C090958095709561957F4FB3
:100E70008F4F9F4FF0683F2E2AE030E0A3010E9481
:100E80006608882E861845C0853731F4232D2F7EBD
:100E9000B22E2AE030E025C0932D997FB92E8F36EF
:100EA000C1F018F4883579F0B5C0803719F088376B
:100EB00021F0B0C0E92FE061BE2EB4FE0DC0FB2DC5
:100EC000F460BF2E09C034FE0AC0292F2660B22E5E
:100ED00006C028E030E005C020E130E002C020E19B
:100EE00032E0F801B7FE07C0608171818281938191
:100EF0000C5F1F4F06C06081718180E090E00E5F43
:100F00001F4FA3010E946608882E8618FB2DFF77CD
:100F10003F2E36FE0DC0232D2E7FA22E891458F4AD
:100F200034FE0BC032FC09C0832D8E7EA82E05C076
:100F3000B82CA32C03C0B82C01C0B92CA4FE0FC040
:100F4000FE01E80DF11D8081803321F49A2D997EF8
:100F5000A92E09C0A2FE06C0B394B39404C08A2D82
:100F6000867809F0B394A3FC11C0A0FE06C0B214A9
:100F700088F4280C922C9B180EC0B21460F4B601B1
:100F800080E290E00E942A08B394F7CFB21418F4DC
:100F90002B1802C0982C212CA4FE10C0B60180E3AF
:100FA00090E00E942A08A2FE17C0A1FC03C088E7B7
:100FB00090E002C088E590E0B6010CC08A2D8678EA
:100FC00059F0A1FE02C08BE201C080E2A7FC8DE2D5
:100FD000B60190E00E942A08891438F4B60180E333
:100FE00090E00E942A089A94F7CF8A94F301E80DC2
:100FF000F11D8081B60190E00E942A088110F5CF92
:10100000222009F442CEB60180E290E00E942A0834
:101010002A94F6CFF6018681978102C08FEF9FEF69
:101020002B96E2E10C94E008FC01059061507040C1
:101030000110D8F7809590958E0F9F1F0895FC01A1
:101040006150704001900110D8F7809590958E0FF7
:101050009F1F08950F931F93CF93DF93FB0123816D
:1010600021FD03C08FEF9FEF2CC022FF16C04681E9
:101070005781248135814217530744F4A081B181FF
:101080009D012F5F3F4F318320838C9326813781D1
:101090002F5F3F4F3783268314C08B01EC01FB0188
:1010A0000084F185E02D0995892BE1F6D80116968B
:1010B0008D919C911797019617969C938E931697F6
:1010C000CE01DF91CF911F910F910895FA01AA27C8
:1010D000283051F1203181F1E8946F936E7F6E5F7B
:1010E0007F4F8F4F9F4FAF4FB1E03ED0B4E03CD029
:1010F000670F781F891F9A1FA11D680F791F8A1F0C
:10110000911DA11D6A0F711D811D911DA11D20D072
:1011100009F468943F912AE0269F11243019305D2C
:101120003193DEF6CF010895462F4770405D41931D
:10113000B3E00FD0C9F7F6CF462F4F70405D4A336A
:1011400018F0495D31FD4052419302D0A9F7EACF32
:10115000B4E0A6959795879577956795BA95C9F761
:1011600000976105710508959B01AC010A2E069454
:101170005795479537952795BA95C9F7620F731F0D
:10118000841F951FA01D08952F923F924F925F924A
:101190006F927F928F929F92AF92BF92CF92DF9287
:1011A000EF92FF920F931F93CF93DF93CDB7DEB7EC
:1011B000CA1BDB0B0FB6F894DEBF0FBECDBF099480
:1011C0002A88398848885F846E847D848C849B84D7
:1011D000AA84B984C884DF80EE80FD800C811B81E5
:1011E000AA81B981CE0FD11D0FB6F894DEBF0FBE14
:0A11F000CDBFED010895F894FFCF84
:1011FA004C6566743A200043656E7465723A200045
:10120A0052696768743A20000A00256C7500256CDB
:06121A00642E256C640047
:00000001FF
