:100000000C9434000C9464000C946E000C94510019
:100010000C9451000C9451000C9451000C9451001C
:100020000C9451000C9451000C9451000C9451000C
:100030000C9451000C9482000C9451000C945100CB
:100040000C9478000C9451000C9451000C945100C5
:100050000C9451000C9451000C9451000C945100DC
:100060000C9451000C94510011241FBECFEFD8E026
:10007000DEBFCDBF11E0A0E0B1E0ECE1F7E002C0EF
:1000800005900D92A030B107D9F721E0A0E0B1E0D2
:1000900001C01D92AD32B207E1F70E948C000C94B2
:1000A0008C030C94000080937C0087EC80937A0092
:1000B00080917A0084FFFCCF80E180937A00809168
:1000C00078009091790008951F920F920FB60F92C9
:1000D00011240F900FBE0F901F9018951F920F9232
:1000E0000FB60F9211240F900FBE0F901F9018950E
:1000F0001F920F920FB60F9211240F900FBE0F9008
:100100001F9018951F920F920FB60F9211240F9007
:100110000FBE0F901F9018950E9411018CE38F93D2
:1001200083E28F9387ED8F938AE08F938DE38F9394
:100130008CEC8F938F938DEC8F930F2E812C912CC1
:10014000F0E8AF2EFFE3BF2EF02D0F2EC12CD12CE7
:10015000F4E3EF2EF3E4FF2EF02D00E010E0980121
:1001600040E050E064EB72E480E091E00E94C10066
:100170008DB79EB708960FB6F8949EBF0FBE8DBF81
:10018000FFCF8F929F92AF92BF92CF92DF92EF926A
:10019000FF920F931F93CF93DF93CDB7DEB7FC0190
:1001A000408351836283738304871587268737874B
:1001B000C08AD18AE28AF38A80A291A2A2A2B3A2C3
:1001C0008F859889A989BA8984A395A3A6A3B7A383
:1001D0008B899C89AD89BE8980A791A7A2A7B3A767
:1001E0001482158216821782108611861286138653
:1001F000148A158A168A178A108E118E128E138E03
:10020000148E158E168E178EDF91CF911F910F9140
:10021000FF90EF90DF90CF90BF90AF909F908F9026
:1002200008958EE184B980E68AB981E00E94530086
:1002300082E8809380008BE18093810088E893E1DD
:10024000909387008093860087E791E090938900E0
:100250008093880081EA84BD82E085BD17BC18BC0C
:1002600060E875E280E090E00E943D0181E08093CB
:100270006E0080936F007894089520912C012111D5
:1002800041C028E02093C10026E02093C200611500
:1002900071058105910531F0603825E2720781050D
:1002A000910539F487E690E09093C5008093C400EF
:1002B00023C00E94910220E030E040E851E40E9417
:1002C0001F039B01AC0160E074E284E79BE40E94A1
:1002D000F00120E030E040E85FE30E94830120E08D
:1002E00030E040E05FE30E9484010E94620270E01F
:1002F0007093C5006093C4008DE08093C60081E0D8
:1003000080932C0108955058BB27AA270E949B0177
:100310000C94E5020E94D70238F00E94DE0220F021
:1003200039F49F3F19F426F40C94D4020EF4E095AE
:10033000E7FB0C94CE02E92F0E94F60258F3BA179D
:10034000620773078407950720F079F4A6F50C94EB
:1003500018030EF4E0950B2EBA2FA02D0B01B90156
:1003600090010C01CA01A0011124FF27591B99F02B
:10037000593F50F4503E68F11A16F040A22F232F37
:10038000342F4427585FF3CF469537952795A79587
:10039000F0405395C9F77EF41F16BA0B620B730B2E
:1003A000840BBAF09150A1F0FF0FBB1F661F771F9F
:1003B000881FC2F70EC0BA0F621F731F841F48F454
:1003C000879577956795B795F7959E3F08F0B0CFDD
:1003D0009395880F08F09927EE0F979587950895C4
:1003E0000E9404020C94E5020E94DE0258F00E9472
:1003F000D70240F029F45F3F29F00C94CE0251114E
:100400000C9419030C94D4020E94F60268F3992309
:10041000B1F3552391F3951B550BBB27AA27621700
:100420007307840738F09F5F5F4F220F331F441F0D
:10043000AA1FA9F335D00E2E3AF0E0E832D0915041
:100440005040E695001CCAF72BD0FE2F29D0660F2E
:10045000771F881FBB1F261737074807AB07B0E871
:1004600009F0BB0B802DBF01FF2793585F4F3AF077
:100470009E3F510578F00C94CE020C9419035F3F17
:10048000E4F3983ED4F3869577956795B795F795FD
:100490009F5FC9F7880F911D9695879597F90895E5
:1004A000E1E0660F771F881FBB1F62177307840781
:1004B000BA0720F0621B730B840BBA0BEE1F88F790
:1004C000E09508950E94FE0288F09F5798F0B92F9A
:1004D0009927B751B0F0E1F0660F771F881F991F79
:1004E0001AF0BA95C9F714C0B13091F00E94180300
:1004F000B1E008950C941803672F782F8827B85F10
:1005000039F0B93FCCF3869577956795B395D9F7D0
:100510003EF490958095709561957F4F8F4F9F4FDA
:100520000895E89409C097FB3EF4909580957095E6
:1005300061957F4F8F4F9F4F9923A9F0F92F96E92F
:10054000BB279395F695879577956795B795F111A4
:10055000F8CFFAF4BB0F11F460FF1BC06F5F7F4F41
:100560008F4F9F4F16C0882311F096E911C0772353
:1005700021F09EE8872F762F05C0662371F096E85C
:10058000862F70E060E02AF09A95660F771F881F2B
:10059000DAF7880F9695879597F9089597F99F67E9
:1005A00080E870E060E008959FEF80EC08950024FB
:1005B0000A941616170618060906089500240A94C8
:1005C00012161306140605060895092E0394000C4E
:1005D00011F4882352F0BB0F40F4BF2B11F460FFDD
:1005E00004C06F5F7F4F8F4F9F4F089557FD905806
:1005F000440F551F59F05F3F71F04795880F97FBE7
:10060000991F61F09F3F79F08795089512161306A0
:100610001406551FF2CF4695F1DF08C016161706CF
:100620001806991FF1CF8695710561050894089504
:10063000E894BB2766277727CB0197F908950E9496
:1006400032030C94E5020E94D70238F00E94DE02C9
:1006500020F0952311F00C94CE020C94D4021124B6
:100660000C9419030E94F60270F3959FC1F3950F45
:1006700050E0551F629FF001729FBB27F00DB11D26
:10068000639FAA27F00DB11DAA1F649F6627B00DB6
:10069000A11D661F829F2227B00DA11D621F739F9F
:1006A000B00DA11D621F839FA00D611D221F749FAD
:1006B0003327A00D611D231F849F600D211D822FF4
:1006C000762F6A2F11249F5750409AF0F1F088231B
:1006D0004AF0EE0FFF1FBB1F661F771F881F915048
:1006E0005040A9F79E3F510580F00C94CE020C9427
:1006F00019035F3FE4F3983ED4F3869577956795A9
:10070000B795F795E7959F5FC1F7FE2B880F911D71
:0C0710009695879597F90895F894FFCF0F
:00000001FF
