:100000000C9434000C9451000C9451000C94510049
:100010000C9451000C9451000C9451000C9451001C
:100020000C9451000C9451000C9451000C9451000C
:100030000C9451000C9451000C9451000C945100FC
:100040000C9451000C9451000C9451000C945100EC
:100050000C9451000C9451000C9451000C945100DC
:100060000C9451000C94510011241FBECFEFD8E026
:10007000DEBFCDBF11E0A0E0B1E0E4E2F9E002C0F4
:1000800005900D92A834B107D9F721E0A8E4B1E0BA
:1000900001C01D92A934B207E1F70E94D3000C946D
:1000A00090040C9400001092B90088E48093B8008A
:1000B000089594EA9093BC009091BC009923E4F7D2
:1000C0009091B900987F983091F48093BB0084E8B8
:1000D0008093BC008091BC008823E4F78091B90034
:1000E000887F883131F0803231F482E0089580E0F9
:1000F000089581E0089583E0089594EA9093BC0008
:100100009091BC009923E4F79091B900987F9031C9
:1001100091F48093BB0084E88093BC008091BC0084
:100120008823E4F78091B900887F803431F08834E7
:1001300031F482E0089580E0089581E0089583E03D
:10014000089584E98093BC008091BC0084FDFCCFBD
:1001500008958093BB0084E88093BC008091BC002C
:100160008823E4F78091B900887F883221F08033BA
:1001700021F481E0089580E0089582E0089584EC00
:100180008093BC008091BC008823E4F78091BB0081
:10019000089584E88093BC008091BC008823E4F734
:1001A0008091BB000895CF93DF93CDB7DEB72A9738
:1001B0000FB6F894DEBF0FBECDBF0E9470010E9443
:1001C000530080E091E00E948E010E94A1018EE028
:1001D00091E00E948E010E94A10180E20E945900DC
:1001E0008FE19EE40197F1F700C0000010E025C008
:1001F0001F921F938FE191E09F938F93CE01019601
:100200007C019F938F930E94A601C7010E948E01DB
:100210000E94A101812F0E94A9009FEF29E688E199
:10022000915020408040E1F700C000001F5F0F9018
:100230000F900F900F900F900F901A30C8F286E237
:1002400091E00E948E010E94A10181E20E947D0046
:100250008FE19EE40197F1F700C0000010E03BC081
:100260001930A8F40E94BF001F928F938FE191E094
:100270009F938F93CE0101969F938F930E94A60127
:100280000F900F900F900F900F900F9014C00E943E
:10029000C9001F928F938FE191E09F938F93CE01BE
:1002A00001969F938F930E94A6010F900F900F903D
:1002B0000F900F900F90CE0101960E948E010E9428
:1002C000A1019FEF29E688E1915020408040E1F7AD
:1002D00000C000001F5F1A3018F20E94A10077CF03
:1002E00080914801811112C088E08093C10086E0AE
:1002F0008093C20087E690E09093C5008093C4008D
:100300008DE08093C60081E080934801089590912C
:10031000C00095FFFCCF8093C6000895CF93DF9374
:10032000EC0109C00E94870188818A3019F48DE0B0
:100330000E948701219688818111F4CFDF91CF91AE
:10034000089585E491E00E948E010895AEE0B0E04A
:10035000ECEAF1E00C9467040D891E8986E08C8339
:100360001A8309838FEF9FE79E838D83AE01475EDB
:100370005F4F6F89788DCE0101960E94C801EF8191
:10038000F885E00FF11F10822E96E4E00C948304B0
:10039000ABE0B0E0EEECF1E00C9459046C017B01B1
:1003A0008A01FC0117821682838181FFCCC1CE01B4
:1003B00001963C01F6019381F70193FD859193FF2E
:1003C00081917F01882309F4BAC1853239F493FD04
:1003D000859193FF81917F01853229F4B60190E0E8
:1003E0000E94BF03E7CF912C212C312CFFE1F315A4
:1003F000D8F08B3279F038F4803279F08332A1F47E
:10040000232D20611DC08D3261F0803369F4232DCE
:10041000216016C0832D8260382EE32DE4603E2ECD
:100420002AC0F32DF8601DC037FC2DC020ED280F29
:100430002A3040F08E32B9F436FC81C1232D20647D
:10044000322E19C036FE06C08AE0989E200D112477
:10045000922E11C0EAE02E9E200D1124222EF32DA3
:10046000F0623F2E08C08C3621F4832D8068382E30
:1004700002C0883641F4F70193FD859193FF819185
:100480007F018111B3CF982F9F7D9554933028F42D
:100490000C5F1F4F9FE399830DC0833631F0833784
:1004A00071F0833509F059C021C0F801808189833A
:1004B0000E5F1F4F88248394912C530113C0280191
:1004C000F2E04F0E511CF801A080B18036FE03C04F
:1004D000692D70E002C06FEF7FEFC5010E94B40389
:1004E0004C018201F32DFF773F2E16C0280122E038
:1004F000420E511CF801A080B18036FE03C0692D68
:1005000070E002C06FEF7FEFC5010E94A9034C01AC
:10051000F32DF0683F2E820133FC1BC0822D90E04A
:1005200088169906B0F4B60180E290E00E94BF03FD
:100530002A94F4CFF50137FC859137FE81915F0154
:10054000B60190E00E94BF0321102A9421E0821A94
:1005500091088114910471F7E8C0843611F089364E
:1005600041F5F80137FE07C0608171818281938176
:100570000C5F1F4F08C060817181072E000C880B33
:10058000990B0E5F1F4FF32DFF763F2E97FF09C08B
:1005900090958095709561957F4F8F4F9F4FF06834
:1005A0003F2E2AE030E0A3010E94FB03882E86182C
:1005B00045C0853731F4232D2F7EB22E2AE030E05E
:1005C00025C0932D997FB92E8F36C1F018F4883548
:1005D00079F0B5C0803719F0883721F0B0C0E92F25
:1005E000E061BE2EB4FE0DC0FB2DF460BF2E09C02D
:1005F00034FE0AC0292F2660B22E06C028E030E063
:1006000005C020E130E002C020E132E0F801B7FE91
:1006100007C060817181828193810C5F1F4F06C08A
:100620006081718180E090E00E5F1F4FA3010E9406
:10063000FB03882E8618FB2DFF773F2E36FE0DC05C
:10064000232D2E7FA22E891458F434FE0BC032FCC9
:1006500009C0832D8E7EA82E05C0B82CA32C03C004
:10066000B82C01C0B92CA4FE0FC0FE01E80DF11D8D
:100670008081803321F49A2D997EA92E09C0A2FE93
:1006800006C0B394B39404C08A2D867809F0B3945D
:10069000A3FC11C0A0FE06C0B21488F4280C922C52
:1006A0009B180EC0B21460F4B60180E290E00E9484
:1006B000BF03B394F7CFB21418F42B1802C0982CD0
:1006C000212CA4FE10C0B60180E390E00E94BF037D
:1006D000A2FE17C0A1FC03C088E790E002C088E535
:1006E00090E0B6010CC08A2D867859F0A1FE02C0B8
:1006F0008BE201C080E2A7FC8DE2B60190E00E948F
:10070000BF03891438F4B60180E390E00E94BF0370
:100710009A94F7CF8A94F301E80DF11D8081B60118
:1007200090E00E94BF038110F5CF222009F442CE51
:10073000B60180E290E00E94BF032A94F6CFF60152
:100740008681978102C08FEF9FEF2B96E2E10C9498
:100750007504FC010590615070400110D8F7809538
:1007600090958E0F9F1F0895FC016150704001907D
:100770000110D8F7809590958E0F9F1F08950F93C5
:100780001F93CF93DF93FB01238121FD03C08FEFE4
:100790009FEF2CC022FF16C04681578124813581EE
:1007A0004217530744F4A081B1819D012F5F3F4F51
:1007B000318320838C93268137812F5F3F4F37838E
:1007C000268314C08B01EC01FB010084F185E02D30
:1007D0000995892BE1F6D80116968D919C91179772
:1007E000019617969C938E931697CE01DF91CF9129
:1007F0001F910F910895FA01AA27283051F1203155
:1008000081F1E8946F936E7F6E5F7F4F8F4F9F4FA4
:10081000AF4FB1E03ED0B4E03CD0670F781F891FE6
:100820009A1FA11D680F791F8A1F911DA11D6A0FB4
:10083000711D811D911DA11D20D009F468943F9167
:100840002AE0269F11243019305D3193DEF6CF0166
:100850000895462F4770405D4193B3E00FD0C9F72C
:10086000F6CF462F4F70405D4A3318F0495D31FD99
:100870004052419302D0A9F7EACFB4E0A6959795EC
:10088000879577956795BA95C9F7009761057105C2
:1008900008959B01AC010A2E06945795479537950C
:1008A0002795BA95C9F7620F731F841F951FA01D66
:1008B00008952F923F924F925F926F927F928F9204
:1008C0009F92AF92BF92CF92DF92EF92FF920F93DF
:1008D0001F93CF93DF93CDB7DEB7CA1BDB0B0FB6E9
:1008E000F894DEBF0FBECDBF09942A8839884888A6
:1008F0005F846E847D848C849B84AA84B984C8843C
:10090000DF80EE80FD800C811B81AA81B981CE0F32
:10091000D11D0FB6F894DEBF0FBECDBFED01089517
:04092000F894FFCF79
:100924004D6173746572204465766963650053652F
:100934006E64696E67203A20202020202020002544
:10094400642020202000526563656976696E672003
:100954003A2020202020202000256C7500256C647E
:080964002E256C64000A0D0051
:00000001FF
