:100000000C9434000C943E000C943E000C943E0082
:100010000C943E000C943E000C943E000C943E0068
:100020000C943E000C943E000C943E000C943E0058
:100030000C943E000C943E000C943E000C943E0048
:100040000C943E000C943E000C943E000C943E0038
:100050000C943E000C943E000C943E000C943E0028
:100060000C943E000C943E0011241FBECFEFD8E04C
:10007000DEBFCDBF0E945C000C946C000C940000AD
:100080001092B90082E78093B800089584EA8093C3
:10009000BC008091BC008823E4F7089584E9809334
:1000A000BC0008958093BB0084E88093BC008091DD
:1000B000BC008823E4F7089588B1806388B90E9462
:1000C00040000E94460082E00E94520082E00E94AE
:0C00D00052000E944E00FFCFF894FFCFBA
:00000001FF
