:100000000C9475000C943D010C9447010C949200E3
:100010000C9492000C9492000C9492000C94920018
:100020000C9492000C9492000C9492000C94920008
:100030000C9492000C945B010C9492000C9492002E
:100040000C9451010C9492000C9492000C94920028
:100050000C9492000C9492000C9492000C949200D8
:100060000C9492000C94920007634236B79BD8A779
:100070001A39685618AEBAAB558C1D3CB7CC5763CD
:10008000BD6DEDFD753EF6177231BF000000803F7B
:1000900008000000BE922449123EABAAAA2ABECD97
:1000A000CCCC4C3E00000080BEABAAAAAA3E000009
:1000B0000000BF000000803F000000000008417801
:1000C000D3BB4387D1133D190E3CC3BD4282AD2B38
:1000D0003E68EC8276BED98FE1A93E4C80EFFFBE30
:1000E00001C4FF7F3F000000000011241FBECFEFBE
:1000F000D8E0DEBFCDBF11E0A0E0B1E0E0E4FFE07A
:1001000002C005900D92A030B107D9F721E0A0E020
:10011000B1E001C01D92AE32B207E1F70E94650165
:100120000C949E070C94000080937C0087EC8093D5
:100130007A0080917A0084FFFCCF80E180937A007E
:10014000809178009091790008950F931F93CF9339
:10015000DF93D82FC0E000E010E006C08D2F0E9492
:100160009400080F191FCF5FC830C0F3C8019695DF
:1001700087959695879596958795DF91CF911F9155
:100180000F9108950E94A500BC0180E090E00E94BC
:10019000F50427E137EB41E55BE30E94AC050895E8
:1001A0000F931F93CF93DF93062F172FD82FC92FAD
:1001B00020E030E048E452E40E94A70518168CF0D5
:1001C00020E030E040E251E4602F712F8D2F9C2F12
:1001D0000E944F0488234CF400E010E0D0E2C1E418
:1001E00004C000E010E0D8E4C2E4602F712F8D2F2E
:1001F0009C2FDF91CF911F910F9108950E94C20013
:100200002DED34E246E95FEB0E9419062DE637EE4C
:100210004FEE51E40E94AC050E94D0000895CF92A9
:10022000DF92EF92FF92CF93C62F0E94FE006B01E8
:100230007C018C2F0E94FE009B01AC01C701B6011E
:100240000E94E203CF91FF90EF90DF90CF9008954E
:100250000E940F0120E030E048E452E40E94E303F2
:1002600020E030E048EC52E40E94540420E030E00A
:1002700044E353E40E94AC0508951F920F920FB619
:100280000F9211240F900FBE0F901F9018951F9280
:100290000F920FB60F9211240F900FBE0F901F9068
:1002A00018951F920F920FB60F9211240F900FBE48
:1002B0000F901F9018951F920F920FB60F92112456
:1002C0000F900FBE0F901F9018950E946F038CE344
:1002D0008F9383E28F9387ED8F938AE08F938DE3E3
:1002E0008F938CEC8F938F938DEC8F930F2E812CAB
:1002F000912CF0E8AF2EFFE3BF2EF02D0F2EC12C76
:10030000D12CF4E3EF2EF3E4FF2EF02D00E010E00B
:10031000980140E050E064EB72E480E091E00E94DC
:100320001A028DB79EB708960FB6F8949EBF0FBEFF
:100330008DBF60E082E00E942801AB01BC0180E03B
:1003400091E00E94A50260910401709105018091E5
:100350000601909107010E94C604862F0E94560351
:1003600081E00E94FE000E94E801E3CF893208F09C
:1003700088E29FEF980F933108F484E190912C016B
:10038000911110C0682F70E080E090E00E94F704A7
:1003900023E333E343E250E40E94AC050E94C60429
:1003A00067BD0895913079F4682F70E080E090E0A7
:1003B0000E94F70423E333E343E250E40E94AC05D8
:1003C0000E94C60468BD089580E00E94B6010895A9
:1003D000CF92DF92EF92FF926B017C0120E030E040
:1003E00040E751E40E944F04882314F40E94E40182
:1003F00020E030E040E751E4C701B6010E94E2038B
:100400009B01AC010E94E30320E030E048EC52E4A1
:100410000E94540420E030E040E252E40E94AC0527
:100420000E94C604862F0E94B601FF90EF90DF90D5
:10043000CF9008958F929F92AF92BF92CF92DF920A
:10044000EF92FF920F931F93CF93DF93CDB7DEB759
:10045000FC01408351836283738304871587268759
:100460003787C08AD18AE28AF38A80A291A2A2A2A7
:10047000B3A28F859889A989BA8984A395A3A6A3D5
:10048000B7A38B899C89AD89BE8980A791A7A2A7B4
:10049000B3A71482158216821782108611861286DF
:1004A0001386148A158A168A178A108E118E128E58
:1004B000138E148E158E168E178EDF91CF911F918D
:1004C0000F91FF90EF90DF90CF90BF90AF909F90F3
:1004D0008F9008958F929F92AF92BF92CF92DF92AA
:1004E000EF92FF92CF93DF93EC01CC80DD80EE8022
:1004F000FF8088889988AA88BB88A5019401C701D4
:10050000B6010E94A70518162CF48C829D82AE823B
:10051000BF8210C08C849D84AE84BF84A5019401E9
:10052000C701B6010E944F04882324F48C829D8267
:10053000AE82BF82DF91CF91FF90EF90DF90CF909E
:10054000BF90AF909F908F9008954F925F926F925F
:100550007F928F929F92AF92BF92CF92DF92EF9253
:10056000FF92CF93DF9300D000D000D0CDB7DEB79D
:100570009E838D834A015B01DC018D919D910D90DD
:10058000BC91A02D89839A83AB83BC839A01AB0174
:10059000BC01CD010E94E2036B017C01ED81FE8173
:1005A00080869186A286B3862489358946895789B3
:1005B0000E94E2034B015C01AD81BE815C966D93AC
:1005C0007D938D939C935F9758962D913D914D917E
:1005D0005C915B97C701B6010E94E3032B013C01CC
:1005E000ED81FE81608F718F828F938F20A131A169
:1005F00042A153A1C701B6010E94AC059B01AC0109
:1006000069817A818B819C810E94E30369837A836B
:100610008B839C83AD81BE8194962D913D914D91AC
:100620005C919797C301B2010E94AC059B01AC019C
:1006300069817A818B819C810E94E3032B013C01BB
:10064000ED81FE8120A531A542A553A5C501B401C8
:100650000E94AC059B01AC01C301B2010E94E303FF
:10066000AD81BE8114966D937D938D939C93179766
:10067000CD010E946A02ED81FE81C48AD58AE68A94
:10068000F78A26960FB6F894DEBF0FBECDBFDF9176
:10069000CF91FF90EF90DF90CF90BF90AF909F9061
:1006A0008F907F906F905F904F900895682F70E0CB
:1006B00080E090E00E94F70421EC3AEC41EB5FE32C
:1006C0000E94AC0520E030E04AE753E40E94E303D7
:1006D0000E94C60470938900609388000895CF93A8
:1006E000C2E0C4B980E68AB981E00E94940082E841
:1006F000809380008BE18093810088E893E1909360
:1007000087008093860087E791E09093890080932B
:10071000880081EA84BDC5BD17BC18BC60E875E2DD
:1007200080E090E00E949C0381E080936E008093C3
:100730006F007894CF91089520912D01211141C02F
:1007400028E02093C10026E02093C20061157105C6
:100750008105910531F0603825E272078105910528
:1007600039F487E690E09093C5008093C40023C0DD
:100770000E94F50420E030E040E851E40E94AC051E
:100780009B01AC0160E074E284E79BE40E945404A6
:1007900020E030E040E85FE30E94E20320E030E048
:1007A00040E05FE30E94E3030E94C60470E07093A0
:1007B000C5006093C4008DE08093C60081E0809303
:1007C0002D0108955058BB27AA270E94FA030C94C4
:1007D0006D050E945F0538F00E94660520F039F42F
:1007E0009F3F19F426F40C945C050EF4E095E7FBAA
:1007F0000C945605E92F0E947E0558F3BA1762073C
:1008000073078407950720F079F4A6F50C94A005EA
:100810000EF4E0950B2EBA2FA02D0B01B90190011B
:100820000C01CA01A0011124FF27591B99F0593F5F
:1008300050F4503E68F11A16F040A22F232F342FA7
:100840004427585FF3CF469537952795A795F040F5
:100850005395C9F77EF41F16BA0B620B730B840B0A
:10086000BAF09150A1F0FF0FBB1F661F771F881FC2
:10087000C2F70EC0BA0F621F731F841F48F487951A
:1008800077956795B795F7959E3F08F0B0CF93950C
:10089000880F08F09927EE0F9795879508950E9485
:1008A000320508F481E008950E9468040C946D05F7
:1008B0000E94660558F00E945F0540F029F45F3FF2
:1008C00029F00C94560551110C94A1050C945C056B
:1008D0000E947E0568F39923B1F3552391F3951B8C
:1008E000550BBB27AA2762177307840738F09F5F51
:1008F0005F4F220F331F441FAA1FA9F335D00E2EBE
:100900003AF0E0E832D091505040E695001CCAF72A
:100910002BD0FE2F29D0660F771F881FBB1F2617ED
:1009200037074807AB07B0E809F0BB0B802DBF01C4
:10093000FF2793585F4F3AF09E3F510578F00C9493
:1009400056050C94A1055F3FE4F3983ED4F38695D9
:1009500077956795B795F7959F5FC9F7880F911DB4
:100960009695879597F90895E1E0660F771F881FA0
:10097000BB1F621773078407BA0720F0621B730B53
:10098000840BBA0BEE1F88F7E09508950E94860548
:1009900088F09F5798F0B92F9927B751B0F0E1F040
:1009A000660F771F881F991F1AF0BA95C9F714C0F0
:1009B000B13091F00E94A005B1E008950C94A0051B
:1009C000672F782F8827B85F39F0B93FCCF3869529
:1009D00077956795B395D9F73EF490958095709586
:1009E00061957F4F8F4F9F4F0895E89409C097FB03
:1009F0003EF490958095709561957F4F8F4F9F4FF6
:100A00009923A9F0F92F96E9BB279395F695879539
:100A100077956795B795F111F8CFFAF4BB0F11F4FC
:100A200060FF1BC06F5F7F4F8F4F9F4F16C08823A3
:100A300011F096E911C0772321F09EE8872F762FD9
:100A400005C0662371F096E8862F70E060E02AF01A
:100A50009A95660F771F881FDAF7880F9695879506
:100A600097F90895990F0008550FAA0BE0E8FEEFDB
:100A700016161706E807F907C0F012161306E40762
:100A8000F50798F0621B730B840B950B39F40A265B
:100A900061F0232B242B252B21F408950A2609F439
:100AA000A140A6958FEF811D811D089597F99F673D
:100AB00080E870E060E008959FEF80EC08950024E6
:100AC0000A941616170618060906089500240A94B3
:100AD00012161306140605060895092E0394000C39
:100AE00011F4882352F0BB0F40F4BF2B11F460FFC8
:100AF00004C06F5F7F4F8F4F9F4F089557FD9058F1
:100B0000440F551F59F05F3F71F04795880F97FBD1
:100B1000991F61F09F3F79F087950895121613068B
:100B20001406551FF2CF4695F1DF08C016161706BA
:100B30001806991FF1CF86957105610508940895EF
:100B4000E894BB2766277727CB0197F908950E9481
:100B5000320508F48FEF08950E94BF050C946D05CF
:100B60000E945F0538F00E94660520F0952311F081
:100B70000C9456050C945C0511240C94A1050E945C
:100B80007E0570F3959FC1F3950F50E0551F629F4E
:100B9000F001729FBB27F00DB11D639FAA27F00DD6
:100BA000B11DAA1F649F6627B00DA11D661F829FFD
:100BB0002227B00DA11D621F739FB00DA11D621FE2
:100BC000839FA00D611D221F749F3327A00D611DFF
:100BD000231F849F600D211D822F762F6A2F1124E1
:100BE0009F5750409AF0F1F088234AF0EE0FFF1F14
:100BF000BB1F661F771F881F91505040A9F79E3F6B
:100C0000510580F00C9456050C94A1055F3FE4F368
:100C1000983ED4F3869577956795B795F795E795C0
:100C20009F5FC1F7FE2B880F911D9695879597F9C9
:100C30000895FA01EE0FFF1F309621053105A1F14D
:100C40006115710561F48038BFE39B0749F1689431
:100C50009038810561F08038BFEF9B0741F0992300
:100C60004AF5FF3FE1053105210519F1E8940894A3
:100C7000E795D901AA2329F4AB2FBE2FF85FD0F353
:100C800010C0FF5F70F4A695E0F7F73950F019F047
:100C9000FF3A38F49F779F930DD00F9007FC905840
:100CA000089546F00C945C0560E070E080E89FE3F6
:100CB00008954FE79F775F934F933F932F930E9441
:100CC00014072F913F914F915F910E94AC050C94B6
:100CD000710629F416F00C9456050C94A0050C949A
:100CE0005C050E948605A8F39638A0F707F80F92D6
:100CF000E8942BE33AEA48EB5FE70E94C2050F92C3
:100D00000F920F924DB75EB70F920E945C07E8E614
:100D1000F0E00E94A3064F915F91EF91FF91E5955E
:100D2000EE1FFF1F49F0FE57E0684427EE0F441FF7
:100D3000FA95E1F74195550B0E94D6060F9007FEF4
:100D40000C94CA060895DF93CF931F930F93FF92DD
:100D5000EF92DF927B018C01689406C0DA2EEF01DE
:100D60000E94BF05FE01E894A5912591359145911A
:100D70005591A6F3EF010E94FA03FE019701A80125
:100D8000DA9469F7DF90EF90FF900F911F91CF9168
:100D9000DF9108959B01AC0160E070E080E89FE383
:100DA0000C9454040C9456050C9490070E948605EC
:100DB000D8F39923C9F3940F511DA3F391505040D8
:100DC00094F059F0882332F0660F771F881F9150F6
:100DD0005040C1F79E3F51052CF7880F911D969505
:100DE000879597F908955F3FACF0983E9CF0BB273C
:100DF000869577956795B79508F4B1609395C1F797
:100E0000BB0F58F711F460FFE8CF6F5F7F4F8F4F34
:100E10009F4FE3CF0C94A10516F00C9490070C940F
:100E20005C0568940C9456050E948605A8F39923E6
:100E3000C1F3AEF3DF93CF931F930F93FF92C92FAC
:100E4000DD2788232AF02197660F771F881FDAF79E
:100E500020E030E040E85FEB9FE3883920F0803EFF
:100E600038F021968F770E94E303E0E9F0E004C0B8
:100E70000E94E303EDEBF0E00E94A3068B01BE01AC
:100E8000EC01FB2E6F5771097595771F880B990B35
:100E90000E94F70428E132E741E35FE30E94BF05C7
:100EA000AF2D9801AE01FF900F911F91CF91DF916F
:100EB0000E94FA030C946D05FA01DC01AA0FBB1F16
:100EC0009B01AC01BF5728F42227332744275078D1
:100ED00020C0B75190F4AB2F002446953795279545
:100EE000011CA395D2F3002071F0220F331F441F81
:100EF000B395DAF30ED00C94E20361307105A0E8EB
:100F00008A07B94630F49B01AC016627772788270A
:100F10009078309621F02083318342835383089563
:100F20009F3F31F0915020F4879577956795B7955D
:100F3000880F911D9695879597F90895F894FFCF9E
:00000001FF
