:100000000C9434000C9446000C9446000C9446006A
:100010000C9446000C9446000C9446000C94460048
:100020000C9446000C9446000C9446000C94460038
:100030000C9446000C9446000C9446000C94460028
:100040000C9448000C9446000C9446000C94460016
:100050000C9446000C9446000C9446000C94460008
:100060000C9446000C94460011241FBECFEFD8E03C
:10007000DEBFCDBF21E0A0E0B1E001C01D92A630FF
:10008000B207E1F70E9475000C9401010C94000086
:100090001F920F920FB60F9211242F933F934F93FD
:1000A0005F936F937F938F939F93AF93BF93EF93E0
:1000B000FF93809100018F5F80930001843020F0D6
:1000C0000E947E0010920001FF91EF91BF91AF91CD
:1000D0009F918F917F916F915F914F913F912F9160
:1000E0000F900FBE0F901F9018950E94F40080E0B3
:1000F0000E94D20084E60E94BA00FFCF80910101E5
:1001000081111BC09091050180910401981730F472
:10011000809105018F5F809305010BC090910501CF
:1001200080910401891728F4809105018150809302
:1001300005018091050187BD08958130D1F490912A
:10014000030180910201981730F4809103018F5FC1
:10015000809303010BC090910301809102018917E4
:1001600028F4809103018150809303018091030161
:1001700088BD08952091050190910401291311C0B3
:10018000209103019091020129130BC0909101016C
:10019000911103C0809304010895913011F480936C
:1001A000020108959091050191111DC090910301E4
:1001B000911119C081110AC094B5906894BD94B58D
:1001C0009F7D94BD9BB19F7D9BB90BC0813049F44D
:1001D00094B59F7794BD94B5906294BD9BB19F7B7D
:1001E0009BB980930101089580E68AB983EA84BDB2
:1001F00083E085BD17BC18BC81E080936E007894C5
:060200000895F894FFCF01
:00000001FF
